{
  "contractName": "Calculator",
  "abi": [
    {
      "inputs": [],
      "stateMutability": "nonpayable",
      "type": "constructor"
    },
    {
      "inputs": [],
      "name": "answer",
      "outputs": [
        {
          "internalType": "uint256",
          "name": "",
          "type": "uint256"
        }
      ],
      "stateMutability": "view",
      "type": "function",
      "constant": true
    },
    {
      "inputs": [],
      "name": "name",
      "outputs": [
        {
          "internalType": "string",
          "name": "",
          "type": "string"
        }
      ],
      "stateMutability": "view",
      "type": "function",
      "constant": true
    },
    {
      "inputs": [],
      "name": "remainder",
      "outputs": [
        {
          "internalType": "uint256",
          "name": "",
          "type": "uint256"
        }
      ],
      "stateMutability": "view",
      "type": "function",
      "constant": true
    },
    {
      "inputs": [
        {
          "internalType": "uint256",
          "name": "_a",
          "type": "uint256"
        },
        {
          "internalType": "uint256",
          "name": "_b",
          "type": "uint256"
        }
      ],
      "name": "plus",
      "outputs": [
        {
          "internalType": "uint256",
          "name": "",
          "type": "uint256"
        },
        {
          "internalType": "uint256",
          "name": "",
          "type": "uint256"
        }
      ],
      "stateMutability": "nonpayable",
      "type": "function"
    },
    {
      "inputs": [
        {
          "internalType": "uint256",
          "name": "_a",
          "type": "uint256"
        },
        {
          "internalType": "uint256",
          "name": "_b",
          "type": "uint256"
        }
      ],
      "name": "minus",
      "outputs": [
        {
          "internalType": "uint256",
          "name": "",
          "type": "uint256"
        },
        {
          "internalType": "uint256",
          "name": "",
          "type": "uint256"
        }
      ],
      "stateMutability": "nonpayable",
      "type": "function"
    },
    {
      "inputs": [
        {
          "internalType": "uint256",
          "name": "_a",
          "type": "uint256"
        },
        {
          "internalType": "uint256",
          "name": "_b",
          "type": "uint256"
        }
      ],
      "name": "multiply",
      "outputs": [
        {
          "internalType": "uint256",
          "name": "",
          "type": "uint256"
        },
        {
          "internalType": "uint256",
          "name": "",
          "type": "uint256"
        }
      ],
      "stateMutability": "nonpayable",
      "type": "function"
    },
    {
      "inputs": [
        {
          "internalType": "uint256",
          "name": "_a",
          "type": "uint256"
        },
        {
          "internalType": "uint256",
          "name": "_b",
          "type": "uint256"
        }
      ],
      "name": "divide",
      "outputs": [
        {
          "internalType": "uint256",
          "name": "",
          "type": "uint256"
        },
        {
          "internalType": "uint256",
          "name": "",
          "type": "uint256"
        }
      ],
      "stateMutability": "nonpayable",
      "type": "function"
    },
    {
      "inputs": [],
      "name": "reset",
      "outputs": [],
      "stateMutability": "nonpayable",
      "type": "function"
    }
  ],
  "bytecode": "0x608060405234801561001057600080fd5b506040518060400160405280600c81526020017f446170702043616c746f722100000000000000000000000000000000000000008152506000908051906020019061005c929190610072565b5060006001819055506000600281905550610176565b82805461007e90610115565b90600052602060002090601f0160209004810192826100a057600085556100e7565b82601f106100b957805160ff19168380011785556100e7565b828001600101855582156100e7579182015b828111156100e65782518255916020019190600101906100cb565b5b5090506100f491906100f8565b5090565b5b808211156101115760008160009055506001016100f9565b5090565b6000600282049050600182168061012d57607f821691505b6020821081141561014157610140610147565b5b50919050565b7f4e487b7100000000000000000000000000000000000000000000000000000000600052602260045260246000fd5b6106e7806101856000396000f3fe608060405234801561001057600080fd5b50600436106100885760003560e01c8063a06842511161005b578063a06842511461012b578063d826f88f14610149578063f4f3bdc114610153578063f88e9fbf1461018457610088565b806306fdde031461008d578063165c4a16146100ab57806366098d4f146100dc57806385bb7d691461010d575b600080fd5b6100956101b5565b6040516100a291906103c0565b60405180910390f35b6100c560048036038101906100c09190610338565b610243565b6040516100d39291906103fd565b60405180910390f35b6100f660048036038101906100f19190610338565b610271565b6040516101049291906103fd565b60405180910390f35b61011561029f565b60405161012291906103e2565b60405180910390f35b6101336102a5565b60405161014091906103e2565b60405180910390f35b6101516102ab565b005b61016d60048036038101906101689190610338565b6102bd565b60405161017b9291906103fd565b60405180910390f35b61019e60048036038101906101999190610338565b6102eb565b6040516101ac9291906103fd565b60405180910390f35b600080546101c290610594565b80601f01602080910402602001604051908101604052809291908181526020018280546101ee90610594565b801561023b5780601f106102105761010080835404028352916020019161023b565b820191906000526020600020905b81548152906001019060200180831161021e57829003601f168201915b505050505081565b600080828461025291906104c9565b6001819055506000600281905550600154600254915091509250929050565b60008082846102809190610442565b6001819055506000600281905550600154600254915091509250929050565b60015481565b60025481565b60006001819055506000600281905550565b60008082846102cc9190610523565b6001819055506000600281905550600154600254915091509250929050565b60008082846102fa9190610498565b600181905550828461030c91906105c6565b600281905550600154600254915091509250929050565b6000813590506103328161069a565b92915050565b6000806040838503121561034f5761034e610684565b5b600061035d85828601610323565b925050602061036e85828601610323565b9150509250929050565b600061038382610426565b61038d8185610431565b935061039d818560208601610561565b6103a681610689565b840191505092915050565b6103ba81610557565b82525050565b600060208201905081810360008301526103da8184610378565b905092915050565b60006020820190506103f760008301846103b1565b92915050565b600060408201905061041260008301856103b1565b61041f60208301846103b1565b9392505050565b600081519050919050565b600082825260208201905092915050565b600061044d82610557565b915061045883610557565b9250827fffffffffffffffffffffffffffffffffffffffffffffffffffffffffffffffff0382111561048d5761048c6105f7565b5b828201905092915050565b60006104a382610557565b91506104ae83610557565b9250826104be576104bd610626565b5b828204905092915050565b60006104d482610557565b91506104df83610557565b9250817fffffffffffffffffffffffffffffffffffffffffffffffffffffffffffffffff0483118215151615610518576105176105f7565b5b828202905092915050565b600061052e82610557565b915061053983610557565b92508282101561054c5761054b6105f7565b5b828203905092915050565b6000819050919050565b60005b8381101561057f578082015181840152602081019050610564565b8381111561058e576000848401525b50505050565b600060028204905060018216806105ac57607f821691505b602082108114156105c0576105bf610655565b5b50919050565b60006105d182610557565b91506105dc83610557565b9250826105ec576105eb610626565b5b828206905092915050565b7f4e487b7100000000000000000000000000000000000000000000000000000000600052601160045260246000fd5b7f4e487b7100000000000000000000000000000000000000000000000000000000600052601260045260246000fd5b7f4e487b7100000000000000000000000000000000000000000000000000000000600052602260045260246000fd5b600080fd5b6000601f19601f8301169050919050565b6106a381610557565b81146106ae57600080fd5b5056fea26469706673582212200bad7cf0182f73071d08d755e087a2ff2f0c5add85ee0309a31390e33eb5aa3264736f6c63430008060033",
  "immutableReferences": {},
  "source": "// SPDX-License-Identifier: MIT\npragma solidity ^0.8.0;\n\ncontract Calculator{\n    string public name;\n    uint public answer;\n    uint public remainder;\n    \n    constructor() {\n        name = \"Dapp Caltor!\";\n        answer = 0;\n        remainder = 0; \n    }\n    \n    function plus(uint _a, uint _b) public returns (uint, uint){\n        answer = _a + _b;\n        remainder = 0;\n        return (answer, remainder);\n    }\n    \n    function minus(uint _a, uint _b) public returns (uint, uint){\n        answer = _a - _b;\n        remainder = 0;\n        return (answer, remainder);\n    }\n    \n    function multiply(uint _a, uint _b) public returns (uint, uint){\n        answer = _a * _b;\n        remainder = 0;\n        return (answer, remainder);\n    }\n    \n    function divide(uint _a, uint _b) public returns (uint, uint){\n        answer = _a / _b;\n        remainder = _a % _b;\n        return (answer, remainder);\n    }\n    \n    function reset() public{\n        answer = 0;\n        remainder = 0; \n    }\n    \n}",
  "sourcePath": "/Users/tim/_Dapp_ex/Me_Calculator/src/contracts/Calculator.sol",
  "compiler": {
    "name": "solc",
    "version": "0.8.6+commit.11564f7e.Emscripten.clang"
  },
  "schemaVersion": "3.4.1",
  "updatedAt": "2021-07-20T18:00:53.245Z",
  "networkType": "ethereum",
  "devdoc": {
    "kind": "dev",
    "methods": {},
    "version": 1
  },
  "userdoc": {
    "kind": "user",
    "methods": {},
    "version": 1
  }
}